{
	"data": {
		"bytecode": {
			"linkReferences": {},
			"object": "6080604052348015600e575f80fd5b5061020f8061001c5f395ff3fe608060405234801561000f575f80fd5b506004361061003f575f3560e01c80632b4e84131461004357806336b166ba146100615780633fb5c1cb1461007f575b5f80fd5b61004b61009b565b60405161005891906100d7565b60405180910390f35b6100696100a0565b604051610076919061010a565b60405180910390f35b61009960048036038101906100949190610151565b6100b6565b005b5f5481565b5f8060025f546100b091906101a9565b14905090565b805f8190555050565b5f819050919050565b6100d1816100bf565b82525050565b5f6020820190506100ea5f8301846100c8565b92915050565b5f8115159050919050565b610104816100f0565b82525050565b5f60208201905061011d5f8301846100fb565b92915050565b5f80fd5b610130816100bf565b811461013a575f80fd5b50565b5f8135905061014b81610127565b92915050565b5f6020828403121561016657610165610123565b5b5f6101738482850161013d565b91505092915050565b7f4e487b71000000000000000000000000000000000000000000000000000000005f52601260045260245ffd5b5f6101b3826100bf565b91506101be836100bf565b9250826101ce576101cd61017c565b5b82820690509291505056fea26469706673582212208973b9b5459d9274d23880c02e1e551ab30692fe52ad198dbce4f62706754a9564736f6c634300081a0033",
			"opcodes": "PUSH1 0x80 PUSH1 0x40 MSTORE CALLVALUE DUP1 ISZERO PUSH1 0xE JUMPI PUSH0 DUP1 REVERT JUMPDEST POP PUSH2 0x20F DUP1 PUSH2 0x1C PUSH0 CODECOPY PUSH0 RETURN INVALID PUSH1 0x80 PUSH1 0x40 MSTORE CALLVALUE DUP1 ISZERO PUSH2 0xF JUMPI PUSH0 DUP1 REVERT JUMPDEST POP PUSH1 0x4 CALLDATASIZE LT PUSH2 0x3F JUMPI PUSH0 CALLDATALOAD PUSH1 0xE0 SHR DUP1 PUSH4 0x2B4E8413 EQ PUSH2 0x43 JUMPI DUP1 PUSH4 0x36B166BA EQ PUSH2 0x61 JUMPI DUP1 PUSH4 0x3FB5C1CB EQ PUSH2 0x7F JUMPI JUMPDEST PUSH0 DUP1 REVERT JUMPDEST PUSH2 0x4B PUSH2 0x9B JUMP JUMPDEST PUSH1 0x40 MLOAD PUSH2 0x58 SWAP2 SWAP1 PUSH2 0xD7 JUMP JUMPDEST PUSH1 0x40 MLOAD DUP1 SWAP2 SUB SWAP1 RETURN JUMPDEST PUSH2 0x69 PUSH2 0xA0 JUMP JUMPDEST PUSH1 0x40 MLOAD PUSH2 0x76 SWAP2 SWAP1 PUSH2 0x10A JUMP JUMPDEST PUSH1 0x40 MLOAD DUP1 SWAP2 SUB SWAP1 RETURN JUMPDEST PUSH2 0x99 PUSH1 0x4 DUP1 CALLDATASIZE SUB DUP2 ADD SWAP1 PUSH2 0x94 SWAP2 SWAP1 PUSH2 0x151 JUMP JUMPDEST PUSH2 0xB6 JUMP JUMPDEST STOP JUMPDEST PUSH0 SLOAD DUP2 JUMP JUMPDEST PUSH0 DUP1 PUSH1 0x2 PUSH0 SLOAD PUSH2 0xB0 SWAP2 SWAP1 PUSH2 0x1A9 JUMP JUMPDEST EQ SWAP1 POP SWAP1 JUMP JUMPDEST DUP1 PUSH0 DUP2 SWAP1 SSTORE POP POP JUMP JUMPDEST PUSH0 DUP2 SWAP1 POP SWAP2 SWAP1 POP JUMP JUMPDEST PUSH2 0xD1 DUP2 PUSH2 0xBF JUMP JUMPDEST DUP3 MSTORE POP POP JUMP JUMPDEST PUSH0 PUSH1 0x20 DUP3 ADD SWAP1 POP PUSH2 0xEA PUSH0 DUP4 ADD DUP5 PUSH2 0xC8 JUMP JUMPDEST SWAP3 SWAP2 POP POP JUMP JUMPDEST PUSH0 DUP2 ISZERO ISZERO SWAP1 POP SWAP2 SWAP1 POP JUMP JUMPDEST PUSH2 0x104 DUP2 PUSH2 0xF0 JUMP JUMPDEST DUP3 MSTORE POP POP JUMP JUMPDEST PUSH0 PUSH1 0x20 DUP3 ADD SWAP1 POP PUSH2 0x11D PUSH0 DUP4 ADD DUP5 PUSH2 0xFB JUMP JUMPDEST SWAP3 SWAP2 POP POP JUMP JUMPDEST PUSH0 DUP1 REVERT JUMPDEST PUSH2 0x130 DUP2 PUSH2 0xBF JUMP JUMPDEST DUP2 EQ PUSH2 0x13A JUMPI PUSH0 DUP1 REVERT JUMPDEST POP JUMP JUMPDEST PUSH0 DUP2 CALLDATALOAD SWAP1 POP PUSH2 0x14B DUP2 PUSH2 0x127 JUMP JUMPDEST SWAP3 SWAP2 POP POP JUMP JUMPDEST PUSH0 PUSH1 0x20 DUP3 DUP5 SUB SLT ISZERO PUSH2 0x166 JUMPI PUSH2 0x165 PUSH2 0x123 JUMP JUMPDEST JUMPDEST PUSH0 PUSH2 0x173 DUP5 DUP3 DUP6 ADD PUSH2 0x13D JUMP JUMPDEST SWAP2 POP POP SWAP3 SWAP2 POP POP JUMP JUMPDEST PUSH32 0x4E487B7100000000000000000000000000000000000000000000000000000000 PUSH0 MSTORE PUSH1 0x12 PUSH1 0x4 MSTORE PUSH1 0x24 PUSH0 REVERT JUMPDEST PUSH0 PUSH2 0x1B3 DUP3 PUSH2 0xBF JUMP JUMPDEST SWAP2 POP PUSH2 0x1BE DUP4 PUSH2 0xBF JUMP JUMPDEST SWAP3 POP DUP3 PUSH2 0x1CE JUMPI PUSH2 0x1CD PUSH2 0x17C JUMP JUMPDEST JUMPDEST DUP3 DUP3 MOD SWAP1 POP SWAP3 SWAP2 POP POP JUMP INVALID LOG2 PUSH5 0x6970667358 0x22 SLT KECCAK256 DUP10 PUSH20 0xB9B5459D9274D23880C02E1E551AB30692FE52AD NOT DUP14 0xBC 0xE4 0xF6 0x27 MOD PUSH22 0x4A9564736F6C634300081A0033000000000000000000 "
		},
		"gasEstimates": {
			"creation": {
				"codeDepositCost": "105400",
				"executionCost": "151",
				"totalCost": "105551"
			},
			"external": {
				"isEven()": "infinite",
				"setNumber(uint256)": "22536",
				"userNumber()": "2402"
			}
		},
		"methodIdentifiers": {
			"isEven()": "36b166ba",
			"setNumber(uint256)": "3fb5c1cb",
			"userNumber()": "2b4e8413"
		}
	},
	"abi": [
		{
			"inputs": [],
			"name": "isEven",
			"outputs": [
				{
					"internalType": "bool",
					"name": "",
					"type": "bool"
				}
			],
			"stateMutability": "view",
			"type": "function"
		},
		{
			"inputs": [
				{
					"internalType": "uint256",
					"name": "_number",
					"type": "uint256"
				}
			],
			"name": "setNumber",
			"outputs": [],
			"stateMutability": "nonpayable",
			"type": "function"
		},
		{
			"inputs": [],
			"name": "userNumber",
			"outputs": [
				{
					"internalType": "uint256",
					"name": "",
					"type": "uint256"
				}
			],
			"stateMutability": "view",
			"type": "function"
		}
	]
}